{
    "_format": "hh-sol-artifact-1",
    "contractName": "AlertContract",
    "sourceName": "contracts/AlertContract.sol",
    "abi": [
        {
            "anonymous": false,
            "inputs": [
                {
                    "indexed": true,
                    "internalType": "uint256",
                    "name": "exchangeId",
                    "type": "uint256"
                },
                {
                    "indexed": false,
                    "internalType": "string",
                    "name": "issue",
                    "type": "string"
                },
                {
                    "indexed": false,
                    "internalType": "uint256",
                    "name": "timestamp",
                    "type": "uint256"
                }
            ],
            "name": "AlertTriggered",
            "type": "event"
        },
        {
            "inputs": [
                {
                    "internalType": "uint256",
                    "name": "exchangeId",
                    "type": "uint256"
                },
                {
                    "internalType": "string",
                    "name": "issue",
                    "type": "string"
                }
            ],
            "name": "triggerAlert",
            "outputs": [],
            "stateMutability": "nonpayable",
            "type": "function"
        }
    ],
    "bytecode": "0x6080604052348015600f57600080fd5b506102678061001f6000396000f3fe608060405234801561001057600080fd5b506004361061002b5760003560e01c80639136686114610030575b600080fd5b61004a60048036038101906100459190610132565b61004c565b005b827f8307e2aeca5ab8e6f2cb755376e5ec9785786a0dcc3a208177a62510b06f277e838342604051610080939291906101ff565b60405180910390a2505050565b600080fd5b600080fd5b6000819050919050565b6100aa81610097565b81146100b557600080fd5b50565b6000813590506100c7816100a1565b92915050565b600080fd5b600080fd5b600080fd5b60008083601f8401126100f2576100f16100cd565b5b8235905067ffffffffffffffff81111561010f5761010e6100d2565b5b60208301915083600182028301111561012b5761012a6100d7565b5b9250929050565b60008060006040848603121561014b5761014a61008d565b5b6000610159868287016100b8565b935050602084013567ffffffffffffffff81111561017a57610179610092565b5b610186868287016100dc565b92509250509250925092565b600082825260208201905092915050565b82818337600083830152505050565b6000601f19601f8301169050919050565b60006101cf8385610192565b93506101dc8385846101a3565b6101e5836101b2565b840190509392505050565b6101f981610097565b82525050565b6000604082019050818103600083015261021a8185876101c3565b905061022960208301846101f0565b94935050505056fea2646970667358221220ffd448c1b0b01192bce2109ce62dd31bf4df7aedc784a69a59e181bf1db17d8564736f6c634300081c0033",
    "linkReferences": {},
    "deployedLinkReferences": {}
}