{
    "_format": "hh-sol-artifact-1",
    "contractName": "ExchangeRegistry",
    "sourceName": "contracts/ExchangeRegistry.sol",
    "abi": [
        {
            "anonymous": false,
            "inputs": [
                {
                    "indexed": true,
                    "internalType": "uint256",
                    "name": "exchangeId",
                    "type": "uint256"
                },
                {
                    "indexed": false,
                    "internalType": "string",
                    "name": "chain",
                    "type": "string"
                },
                {
                    "indexed": false,
                    "internalType": "address",
                    "name": "wallet",
                    "type": "address"
                }
            ],
            "name": "WalletRegistered",
            "type": "event"
        },
        {
            "inputs": [
                {
                    "internalType": "uint256",
                    "name": "",
                    "type": "uint256"
                },
                {
                    "internalType": "uint256",
                    "name": "",
                    "type": "uint256"
                }
            ],
            "name": "exchangeWallets",
            "outputs": [
                {
                    "internalType": "string",
                    "name": "chain",
                    "type": "string"
                },
                {
                    "internalType": "address",
                    "name": "wallet",
                    "type": "address"
                }
            ],
            "stateMutability": "view",
            "type": "function"
        },
        {
            "inputs": [
                {
                    "internalType": "uint256",
                    "name": "exchangeId",
                    "type": "uint256"
                }
            ],
            "name": "getWallets",
            "outputs": [
                {
                    "components": [
                        {
                            "internalType": "string",
                            "name": "chain",
                            "type": "string"
                        },
                        {
                            "internalType": "address",
                            "name": "wallet",
                            "type": "address"
                        }
                    ],
                    "internalType": "struct ExchangeRegistry.WalletInfo[]",
                    "name": "",
                    "type": "tuple[]"
                }
            ],
            "stateMutability": "view",
            "type": "function"
        },
        {
            "inputs": [
                {
                    "internalType": "uint256",
                    "name": "exchangeId",
                    "type": "uint256"
                },
                {
                    "internalType": "string",
                    "name": "chain",
                    "type": "string"
                },
                {
                    "internalType": "address",
                    "name": "wallet",
                    "type": "address"
                }
            ],
            "name": "registerWallet",
            "outputs": [],
            "stateMutability": "nonpayable",
            "type": "function"
        }
    ],
    "bytecode": "0x6080604052348015600f57600080fd5b50610c2e8061001f6000396000f3fe608060405234801561001057600080fd5b50600436106100415760003560e01c80631cc793b4146100465780639b2cad2514610077578063dc8fd77014610093575b600080fd5b610060600480360381019061005b9190610490565b6100c3565b60405161006e9291906105a1565b60405180910390f35b610091600480360381019061008c9190610662565b6101ac565b005b6100ad60048036038101906100a891906106d6565b6102f7565b6040516100ba919061085b565b60405180910390f35b600060205281600052604060002081815481106100df57600080fd5b906000526020600020906002020160009150915050806000018054610103906108ac565b80601f016020809104026020016040519081016040528092919081815260200182805461012f906108ac565b801561017c5780601f106101515761010080835404028352916020019161017c565b820191906000526020600020905b81548152906001019060200180831161015f57829003601f168201915b5050505050908060010160009054906101000a900473ffffffffffffffffffffffffffffffffffffffff16905082565b600080858152602001908152602001600020604051806040016040528085858080601f016020809104026020016040519081016040528093929190818152602001838380828437600081840152601f19601f8201169050808301925050505050505081526020018373ffffffffffffffffffffffffffffffffffffffff168152509080600181540180825580915050600190039060005260206000209060020201600090919091909150600082015181600001908161026b9190610ab8565b5060208201518160010160006101000a81548173ffffffffffffffffffffffffffffffffffffffff021916908373ffffffffffffffffffffffffffffffffffffffff1602179055505050837fc3312dc352d8ccf318b3bef5875994ac45ea77aa6649e5fbedfc9f418697856e8484846040516102e993929190610bc6565b60405180910390a250505050565b6060600080838152602001908152602001600020805480602002602001604051908101604052809291908181526020016000905b82821015610445578382906000526020600020906002020160405180604001604052908160008201805461035e906108ac565b80601f016020809104026020016040519081016040528092919081815260200182805461038a906108ac565b80156103d75780601f106103ac576101008083540402835291602001916103d7565b820191906000526020600020905b8154815290600101906020018083116103ba57829003601f168201915b505050505081526020016001820160009054906101000a900473ffffffffffffffffffffffffffffffffffffffff1673ffffffffffffffffffffffffffffffffffffffff1673ffffffffffffffffffffffffffffffffffffffff16815250508152602001906001019061032b565b505050509050919050565b600080fd5b600080fd5b6000819050919050565b61046d8161045a565b811461047857600080fd5b50565b60008135905061048a81610464565b92915050565b600080604083850312156104a7576104a6610450565b5b60006104b58582860161047b565b92505060206104c68582860161047b565b9150509250929050565b600081519050919050565b600082825260208201905092915050565b60005b8381101561050a5780820151818401526020810190506104ef565b60008484015250505050565b6000601f19601f8301169050919050565b6000610532826104d0565b61053c81856104db565b935061054c8185602086016104ec565b61055581610516565b840191505092915050565b600073ffffffffffffffffffffffffffffffffffffffff82169050919050565b600061058b82610560565b9050919050565b61059b81610580565b82525050565b600060408201905081810360008301526105bb8185610527565b90506105ca6020830184610592565b9392505050565b600080fd5b600080fd5b600080fd5b60008083601f8401126105f6576105f56105d1565b5b8235905067ffffffffffffffff811115610613576106126105d6565b5b60208301915083600182028301111561062f5761062e6105db565b5b9250929050565b61063f81610580565b811461064a57600080fd5b50565b60008135905061065c81610636565b92915050565b6000806000806060858703121561067c5761067b610450565b5b600061068a8782880161047b565b945050602085013567ffffffffffffffff8111156106ab576106aa610455565b5b6106b7878288016105e0565b935093505060406106ca8782880161064d565b91505092959194509250565b6000602082840312156106ec576106eb610450565b5b60006106fa8482850161047b565b91505092915050565b600081519050919050565b600082825260208201905092915050565b6000819050602082019050919050565b600082825260208201905092915050565b600061074b826104d0565b610755818561072f565b93506107658185602086016104ec565b61076e81610516565b840191505092915050565b61078281610580565b82525050565b600060408301600083015184820360008601526107a58282610740565b91505060208301516107ba6020860182610779565b508091505092915050565b60006107d18383610788565b905092915050565b6000602082019050919050565b60006107f182610703565b6107fb818561070e565b93508360208202850161080d8561071f565b8060005b85811015610849578484038952815161082a85826107c5565b9450610835836107d9565b925060208a01995050600181019050610811565b50829750879550505050505092915050565b6000602082019050818103600083015261087581846107e6565b905092915050565b7f4e487b7100000000000000000000000000000000000000000000000000000000600052602260045260246000fd5b600060028204905060018216806108c457607f821691505b6020821081036108d7576108d661087d565b5b50919050565b7f4e487b7100000000000000000000000000000000000000000000000000000000600052604160045260246000fd5b60008190508160005260206000209050919050565b60006020601f8301049050919050565b600082821b905092915050565b60006008830261096e7fffffffffffffffffffffffffffffffffffffffffffffffffffffffffffffffff82610931565b6109788683610931565b95508019841693508086168417925050509392505050565b6000819050919050565b60006109b56109b06109ab8461045a565b610990565b61045a565b9050919050565b6000819050919050565b6109cf8361099a565b6109e36109db826109bc565b84845461093e565b825550505050565b600090565b6109f86109eb565b610a038184846109c6565b505050565b5b81811015610a2757610a1c6000826109f0565b600181019050610a09565b5050565b601f821115610a6c57610a3d8161090c565b610a4684610921565b81016020851015610a55578190505b610a69610a6185610921565b830182610a08565b50505b505050565b600082821c905092915050565b6000610a8f60001984600802610a71565b1980831691505092915050565b6000610aa88383610a7e565b9150826002028217905092915050565b610ac1826104d0565b67ffffffffffffffff811115610ada57610ad96108dd565b5b610ae482546108ac565b610aef828285610a2b565b600060209050601f831160018114610b225760008415610b10578287015190505b610b1a8582610a9c565b865550610b82565b601f198416610b308661090c565b60005b82811015610b5857848901518255600182019150602085019450602081019050610b33565b86831015610b755784890151610b71601f891682610a7e565b8355505b6001600288020188555050505b505050505050565b82818337600083830152505050565b6000610ba583856104db565b9350610bb2838584610b8a565b610bbb83610516565b840190509392505050565b60006040820190508181036000830152610be1818587610b99565b9050610bf06020830184610592565b94935050505056fea26469706673582212200e7857fffb98dc8b2b3e60b0b2fadd01ca12547cabd10676115836dc3cd0159864736f6c634300081c0033",
    "linkReferences": {},
    "deployedLinkReferences": {}
}