{
    "_format": "hh-sol-artifact-1",
    "contractName": "ReserveOracle",
    "sourceName": "contracts/ReserveOracle.sol",
    "abi": [
        {
            "anonymous": false,
            "inputs": [
                {
                    "indexed": true,
                    "internalType": "uint256",
                    "name": "exchangeId",
                    "type": "uint256"
                },
                {
                    "indexed": false,
                    "internalType": "bool",
                    "name": "verified",
                    "type": "bool"
                },
                {
                    "indexed": false,
                    "internalType": "uint256",
                    "name": "discrepancyPct",
                    "type": "uint256"
                },
                {
                    "indexed": false,
                    "internalType": "uint256",
                    "name": "timestamp",
                    "type": "uint256"
                }
            ],
            "name": "ReserveUpdated",
            "type": "event"
        },
        {
            "inputs": [
                {
                    "internalType": "uint256",
                    "name": "exchangeId",
                    "type": "uint256"
                }
            ],
            "name": "getReserveStatus",
            "outputs": [
                {
                    "components": [
                        {
                            "internalType": "bool",
                            "name": "verified",
                            "type": "bool"
                        },
                        {
                            "internalType": "uint256",
                            "name": "discrepancyPct",
                            "type": "uint256"
                        },
                        {
                            "internalType": "uint256",
                            "name": "timestamp",
                            "type": "uint256"
                        }
                    ],
                    "internalType": "struct ReserveOracle.ReserveStatus",
                    "name": "",
                    "type": "tuple"
                }
            ],
            "stateMutability": "view",
            "type": "function"
        },
        {
            "inputs": [
                {
                    "internalType": "uint256",
                    "name": "",
                    "type": "uint256"
                }
            ],
            "name": "reserves",
            "outputs": [
                {
                    "internalType": "bool",
                    "name": "verified",
                    "type": "bool"
                },
                {
                    "internalType": "uint256",
                    "name": "discrepancyPct",
                    "type": "uint256"
                },
                {
                    "internalType": "uint256",
                    "name": "timestamp",
                    "type": "uint256"
                }
            ],
            "stateMutability": "view",
            "type": "function"
        },
        {
            "inputs": [
                {
                    "internalType": "uint256",
                    "name": "exchangeId",
                    "type": "uint256"
                },
                {
                    "internalType": "bool",
                    "name": "verified",
                    "type": "bool"
                },
                {
                    "internalType": "uint256",
                    "name": "discrepancyPct",
                    "type": "uint256"
                },
                {
                    "internalType": "uint256",
                    "name": "timestamp",
                    "type": "uint256"
                }
            ],
            "name": "updateReserveStatus",
            "outputs": [],
            "stateMutability": "nonpayable",
            "type": "function"
        }
    ],
    "bytecode": "0x6080604052348015600f57600080fd5b5061042e8061001f6000396000f3fe608060405234801561001057600080fd5b50600436106100415760003560e01c80635521c7a11461004657806381e9b2ea146100625780638334278d14610092575b600080fd5b610060600480360381019061005b9190610294565b6100c4565b005b61007c600480360381019061007791906102fb565b61016c565b6040516100899190610388565b60405180910390f35b6100ac60048036038101906100a791906102fb565b6101c7565b6040516100bb939291906103c1565b60405180910390f35b604051806060016040528084151581526020018381526020018281525060008086815260200190815260200160002060008201518160000160006101000a81548160ff0219169083151502179055506020820151816001015560408201518160020155905050837f165e74487a6f306dd4b69fcddd2bf4f94dbcb89a60543b9b8b022cddc0e8506584848460405161015e939291906103c1565b60405180910390a250505050565b6101746101fe565b6000808381526020019081526020016000206040518060600160405290816000820160009054906101000a900460ff16151515158152602001600182015481526020016002820154815250509050919050565b60006020528060005260406000206000915090508060000160009054906101000a900460ff16908060010154908060020154905083565b604051806060016040528060001515815260200160008152602001600081525090565b600080fd5b6000819050919050565b61023981610226565b811461024457600080fd5b50565b60008135905061025681610230565b92915050565b60008115159050919050565b6102718161025c565b811461027c57600080fd5b50565b60008135905061028e81610268565b92915050565b600080600080608085870312156102ae576102ad610221565b5b60006102bc87828801610247565b94505060206102cd8782880161027f565b93505060406102de87828801610247565b92505060606102ef87828801610247565b91505092959194509250565b60006020828403121561031157610310610221565b5b600061031f84828501610247565b91505092915050565b6103318161025c565b82525050565b61034081610226565b82525050565b60608201600082015161035c6000850182610328565b50602082015161036f6020850182610337565b5060408201516103826040850182610337565b50505050565b600060608201905061039d6000830184610346565b92915050565b6103ac8161025c565b82525050565b6103bb81610226565b82525050565b60006060820190506103d660008301866103a3565b6103e360208301856103b2565b6103f060408301846103b2565b94935050505056fea264697066735822122004c53bba1c364acfddf7305e598a77409f79dac098df4fde0f7d3b0820291d8364736f6c634300081c0033",
    "linkReferences": {},
    "deployedLinkReferences": {}
}